{"abi":[{"type":"constructor","inputs":[{"name":"_owner","type":"address","internalType":"address"},{"name":"_vault","type":"address","internalType":"address"},{"name":"_adminFacet","type":"address","internalType":"address"}],"stateMutability":"nonpayable"},{"type":"fallback","stateMutability":"payable"},{"type":"receive","stateMutability":"payable"},{"type":"function","name":"cancelGrid","inputs":[{"name":"","type":"address","internalType":"address"},{"name":"","type":"uint48","internalType":"uint48"},{"name":"","type":"uint32","internalType":"uint32"}],"outputs":[],"stateMutability":"nonpayable"},{"type":"function","name":"cancelGridOrders","inputs":[{"name":"","type":"address","internalType":"address"},{"name":"","type":"uint64","internalType":"uint64"},{"name":"","type":"uint32","internalType":"uint32"},{"name":"","type":"uint32","internalType":"uint32"}],"outputs":[],"stateMutability":"nonpayable"},{"type":"function","name":"cancelGridOrders","inputs":[{"name":"","type":"uint48","internalType":"uint48"},{"name":"","type":"address","internalType":"address"},{"name":"","type":"uint64[]","internalType":"uint64[]"},{"name":"","type":"uint32","internalType":"uint32"}],"outputs":[],"stateMutability":"nonpayable"},{"type":"function","name":"fillAskOrder","inputs":[{"name":"","type":"uint64","internalType":"uint64"},{"name":"","type":"uint128","internalType":"uint128"},{"name":"","type":"uint128","internalType":"uint128"},{"name":"","type":"bytes","internalType":"bytes"},{"name":"","type":"uint32","internalType":"uint32"}],"outputs":[],"stateMutability":"payable"},{"type":"function","name":"fillAskOrders","inputs":[{"name":"","type":"uint64","internalType":"uint64"},{"name":"","type":"uint64[]","internalType":"uint64[]"},{"name":"","type":"uint128[]","internalType":"uint128[]"},{"name":"","type":"uint128","internalType":"uint128"},{"name":"","type":"uint128","internalType":"uint128"},{"name":"","type":"bytes","internalType":"bytes"},{"name":"","type":"uint32","internalType":"uint32"}],"outputs":[],"stateMutability":"payable"},{"type":"function","name":"fillBidOrder","inputs":[{"name":"","type":"uint64","internalType":"uint64"},{"name":"","type":"uint128","internalType":"uint128"},{"name":"","type":"uint128","internalType":"uint128"},{"name":"","type":"bytes","internalType":"bytes"},{"name":"","type":"uint32","internalType":"uint32"}],"outputs":[],"stateMutability":"payable"},{"type":"function","name":"fillBidOrders","inputs":[{"name":"","type":"uint64","internalType":"uint64"},{"name":"","type":"uint64[]","internalType":"uint64[]"},{"name":"","type":"uint128[]","internalType":"uint128[]"},{"name":"","type":"uint128","internalType":"uint128"},{"name":"","type":"uint128","internalType":"uint128"},{"name":"","type":"bytes","internalType":"bytes"},{"name":"","type":"uint32","internalType":"uint32"}],"outputs":[],"stateMutability":"payable"},{"type":"function","name":"placeETHGridOrders","inputs":[{"name":"","type":"address","internalType":"Currency"},{"name":"","type":"address","internalType":"Currency"},{"name":"","type":"tuple","internalType":"struct IGridOrder.GridOrderParam","components":[{"name":"askStrategy","type":"address","internalType":"contract IGridStrategy"},{"name":"bidStrategy","type":"address","internalType":"contract IGridStrategy"},{"name":"askData","type":"bytes","internalType":"bytes"},{"name":"bidData","type":"bytes","internalType":"bytes"},{"name":"askOrderCount","type":"uint16","internalType":"uint16"},{"name":"bidOrderCount","type":"uint16","internalType":"uint16"},{"name":"fee","type":"uint32","internalType":"uint32"},{"name":"compound","type":"bool","internalType":"bool"},{"name":"oneshot","type":"bool","internalType":"bool"},{"name":"baseAmount","type":"uint128","internalType":"uint128"}]}],"outputs":[],"stateMutability":"payable"},{"type":"function","name":"placeGridOrders","inputs":[{"name":"","type":"address","internalType":"Currency"},{"name":"","type":"address","internalType":"Currency"},{"name":"","type":"tuple","internalType":"struct IGridOrder.GridOrderParam","components":[{"name":"askStrategy","type":"address","internalType":"contract IGridStrategy"},{"name":"bidStrategy","type":"address","internalType":"contract IGridStrategy"},{"name":"askData","type":"bytes","internalType":"bytes"},{"name":"bidData","type":"bytes","internalType":"bytes"},{"name":"askOrderCount","type":"uint16","internalType":"uint16"},{"name":"bidOrderCount","type":"uint16","internalType":"uint16"},{"name":"fee","type":"uint32","internalType":"uint32"},{"name":"compound","type":"bool","internalType":"bool"},{"name":"oneshot","type":"bool","internalType":"bool"},{"name":"baseAmount","type":"uint128","internalType":"uint128"}]}],"outputs":[],"stateMutability":"nonpayable"},{"type":"function","name":"withdrawGridProfits","inputs":[{"name":"","type":"uint48","internalType":"uint48"},{"name":"","type":"uint256","internalType":"uint256"},{"name":"","type":"address","internalType":"address"},{"name":"","type":"uint32","internalType":"uint32"}],"outputs":[],"stateMutability":"nonpayable"},{"type":"error","name":"EnforcedPause","inputs":[]},{"type":"error","name":"FacetNotFound","inputs":[]},{"type":"error","name":"InvalidAddress","inputs":[]}],"bytecode":{"object":"0x60803461036957601f610b1238819003918201601f19168301916001600160401b0383118484101761036d578084926060946040528339810103126103695761004781610381565b90610060604061005960208401610381565b9201610381565b916001600160a01b0316908115610351576001600160a01b0316908115610351576001600160a01b038316158015610360575b610351577f3b129b0603d38a248af5b63cd511963fb9668f5a5bccb19a403b4b679d87980c80546001600160a01b03199081169290921790557f3b129b0603d38a248af5b63cd511963fb9668f5a5bccb19a403b4b679d87980d80548216929092179091557f3b129b0603d38a248af5b63cd511963fb9668f5a5bccb19a403b4b679d87980e8054600160a81b600160e81b031916600160a81b1790557f3b129b0603d38a248af5b63cd511963fb9668f5a5bccb19a403b4b679d87981280546001600160601b0319166901f400000000000000011790557f3b129b0603d38a248af5b63cd511963fb9668f5a5bccb19a403b4b679d8798176020527f42499584204e8ddaca7eeab812ead3372361a0cb07a1a156ed144580323b40f7805482166001600160a01b039390931692831790557fd41ad2614d3ce31f7617ee71cc2eafd6f1c1ef112ebb8e388f73ecc9dbe1090b80548216831790557fbba1a29c6434e895b471b9fb39738d35e4449caf3baf18022c75f6bb61f77f2580548216831790557f2e4b9a5584bb5fc2ae535e0f30a3694428b6728045757a6f3cfe7e098a30cd7980548216831790557fe09caf49f63fa23f2a1d222d8c7d701faa51cae8b699a2258abfc86e5fbaaa1e80548216831790557f393ac3fd48783485becaa5b68bebb7c47531958d2afea7d2927bf054cc289e9c80548216831790557fb9b88e095dd2e49da95f603bd481653f70161a01db77edc4fff6750b4107dc2a80548216831790557fdf7f2320b36727afaae54b21c77b6f7b1ddc89a9e797756ded3e1fd9535f42ea80548216831790557fe7bd2b0ae6bb7f4334d863e70b575dd3eeb0ac122afab165918d65c986ff6e23805482168317905563f2fde38b60e01b5f527f381b878a08d14c0ac42e27b281e4a2cfe387fa91ce0d9db6e60f8a8669fa211a8054909116909117905560405161077c90816103968239f35b63e6c4247b60e01b5f5260045ffd5b50823b15610093565b5f80fd5b634e487b7160e01b5f52604160045260245ffd5b51906001600160a01b03821682036103695756fe60806040526004361015610015575b3661054a57005b5f3560e01c806302022f701461008c578063345742f21461009b57806353945812146100aa578063686c6f17146100a557806383b5b0f9146100a05780638dbf9e881461009b57806395f7e50a14610096578063c7c42e1114610091578063cdcca51c1461008c5763e253b32c0361000e57610515565b610161565b6104e8565b61041c565b610220565b6103d5565b610389565b61032c565b6024359067ffffffffffffffff821682036100c657565b5f80fd5b359067ffffffffffffffff821682036100c657565b35906fffffffffffffffffffffffffffffffff821682036100c657565b9181601f840112156100c65782359167ffffffffffffffff83116100c657602083818601950101116100c657565b6044359063ffffffff821682036100c657565b6064359063ffffffff821682036100c657565b359063ffffffff821682036100c657565b60a03660031901126100c65760043567ffffffffffffffff811681036100c657506024356fffffffffffffffffffffffffffffffff811681036100c657506044356fffffffffffffffffffffffffffffffff811681036100c6575060643567ffffffffffffffff81116100c6576101dc9036906004016100fc565b9050506101e96084610150565b50610345565b9181601f840112156100c65782359167ffffffffffffffff83116100c6576020808501948460051b0101116100c657565b60e03660031901126100c65761023660046100ca565b5060243567ffffffffffffffff81116100c6576102579036906004016101ef565b505060443567ffffffffffffffff81116100c6576102799036906004016101ef565b90505061028660646100df565b5061029160846100df565b5060a43567ffffffffffffffff81116100c6576102b29036906004016100fc565b9050506101e960c4610150565b73ffffffffffffffffffffffffffffffffffffffff8116036100c657565b60606003198201126100c6576004356102f5816102bf565b91602435610302816102bf565b916044359067ffffffffffffffff82116100c6576101409082900360031901126100c65760040190565b346100c65761033a366102dd565b50505061034561070f565b61034d6105e2565b60ff7f3b129b0603d38a248af5b63cd511963fb9668f5a5bccb19a403b4b679d87980e5460a01c16156106435763d93c066560e01b5f5260045ffd5b346100c65760803660031901126100c6576103a56004356102bf565b6103ad6100af565b506103b661012a565b506103bf61013d565b506103c861070f565b6103d06105e2565b610643565b61033a366102dd565b6004359065ffffffffffff821682036100c657565b6024359065ffffffffffff821682036100c657565b634e487b7160e01b5f52604160045260245ffd5b346100c65760803660031901126100c6576104356103de565b506104416024356102bf565b60443567ffffffffffffffff81116100c657366023820112156100c65780600401359067ffffffffffffffff82116104e3578160051b91604051601f19603f85011681019080821067ffffffffffffffff8311176104e35760249260209260405281520192820101903682116100c657602401915b8183106104cb576104c561013d565b50610542565b602080916104d8856100ca565b8152019201916104b6565b610408565b346100c65760803660031901126100c6576105016103de565b5061050d6044356102bf565b6103bf61013d565b346100c65760603660031901126100c6576105316004356102bf565b6105396103f3565b506103bf61012a565b6103c861070f565b5f80357fffffffff000000000000000000000000000000000000000000000000000000001681527f3b129b0603d38a248af5b63cd511963fb9668f5a5bccb19a403b4b679d879817602052604090205473ffffffffffffffffffffffffffffffffffffffff1680156105d3575f8091368280378136915af43d5f803e156105cf573d5ff35b3d5ffd5b632002ac4b60e21b5f5260045ffd5b7f82b21b7549cea00be73a4f1da4bdd106c86eeec12d1938939e1a42334fc851a65c6005811015610634576001017f82b21b7549cea00be73a4f1da4bdd106c86eeec12d1938939e1a42334fc851a65d565b6311cce29560e31b5f5260045ffd5b5f80357fffffffff000000000000000000000000000000000000000000000000000000001681527f3b129b0603d38a248af5b63cd511963fb9668f5a5bccb19a403b4b679d879817602052604090205473ffffffffffffffffffffffffffffffffffffffff1680156105d3575f8091368280378136915af43d5f803e5f197f82b21b7549cea00be73a4f1da4bdd106c86eeec12d1938939e1a42334fc851a65c017f82b21b7549cea00be73a4f1da4bdd106c86eeec12d1938939e1a42334fc851a65d156105cf573d5ff35b7f82b21b7549cea00be73a4f1da4bdd106c86eeec12d1938939e1a42334fc851a65c61073757565b633ee5aeb560e01b5f5260045ffdfea2646970667358221220aca001da2c05746d21f9a662979dc0e9fd44be07d53c38202e16b1804b791cd664736f6c63430008210033","linkReferences":{}},"methodIdentifiers":{"cancelGrid(address,uint48,uint32)":"e253b32c","cancelGridOrders(address,uint64,uint32,uint32)":"686c6f17","cancelGridOrders(uint48,address,uint64[],uint32)":"95f7e50a","fillAskOrder(uint64,uint128,uint128,bytes,uint32)":"02022f70","fillAskOrders(uint64,uint64[],uint128[],uint128,uint128,bytes,uint32)":"345742f2","fillBidOrder(uint64,uint128,uint128,bytes,uint32)":"cdcca51c","fillBidOrders(uint64,uint64[],uint128[],uint128,uint128,bytes,uint32)":"8dbf9e88","placeETHGridOrders(address,address,(address,address,bytes,bytes,uint16,uint16,uint32,bool,bool,uint128))":"83b5b0f9","placeGridOrders(address,address,(address,address,bytes,bytes,uint16,uint16,uint32,bool,bool,uint128))":"53945812","withdrawGridProfits(uint48,uint256,address,uint32)":"c7c42e11"},"id":25}