{
  "abi": [
    {
      "type": "constructor",
      "inputs": [
        {
          "name": "_owner",
          "type": "address",
          "internalType": "address"
        },
        {
          "name": "_vault",
          "type": "address",
          "internalType": "address"
        }
      ],
      "stateMutability": "nonpayable"
    },
    {
      "type": "receive",
      "stateMutability": "payable"
    },
    {
      "type": "function",
      "name": "WETH",
      "inputs": [],
      "outputs": [
        {
          "name": "",
          "type": "address",
          "internalType": "address"
        }
      ],
      "stateMutability": "view"
    },
    {
      "type": "function",
      "name": "cancelGrid",
      "inputs": [
        {
          "name": "recipient",
          "type": "address",
          "internalType": "address"
        },
        {
          "name": "gridId",
          "type": "uint128",
          "internalType": "uint128"
        },
        {
          "name": "flag",
          "type": "uint32",
          "internalType": "uint32"
        }
      ],
      "outputs": [],
      "stateMutability": "nonpayable"
    },
    {
      "type": "function",
      "name": "cancelGridOrders",
      "inputs": [
        {
          "name": "gridId",
          "type": "uint128",
          "internalType": "uint128"
        },
        {
          "name": "recipient",
          "type": "address",
          "internalType": "address"
        },
        {
          "name": "idList",
          "type": "uint256[]",
          "internalType": "uint256[]"
        },
        {
          "name": "flag",
          "type": "uint32",
          "internalType": "uint32"
        }
      ],
      "outputs": [],
      "stateMutability": "nonpayable"
    },
    {
      "type": "function",
      "name": "cancelGridOrders",
      "inputs": [
        {
          "name": "recipient",
          "type": "address",
          "internalType": "address"
        },
        {
          "name": "startGridOrderId",
          "type": "uint256",
          "internalType": "uint256"
        },
        {
          "name": "howmany",
          "type": "uint32",
          "internalType": "uint32"
        },
        {
          "name": "flag",
          "type": "uint32",
          "internalType": "uint32"
        }
      ],
      "outputs": [],
      "stateMutability": "nonpayable"
    },
    {
      "type": "function",
      "name": "fillAskOrder",
      "inputs": [
        {
          "name": "gridOrderId",
          "type": "uint256",
          "internalType": "uint256"
        },
        {
          "name": "amt",
          "type": "uint128",
          "internalType": "uint128"
        },
        {
          "name": "minAmt",
          "type": "uint128",
          "internalType": "uint128"
        },
        {
          "name": "data",
          "type": "bytes",
          "internalType": "bytes"
        },
        {
          "name": "flag",
          "type": "uint32",
          "internalType": "uint32"
        }
      ],
      "outputs": [],
      "stateMutability": "payable"
    },
    {
      "type": "function",
      "name": "fillAskOrders",
      "inputs": [
        {
          "name": "pairId",
          "type": "uint64",
          "internalType": "uint64"
        },
        {
          "name": "idList",
          "type": "uint256[]",
          "internalType": "uint256[]"
        },
        {
          "name": "amtList",
          "type": "uint128[]",
          "internalType": "uint128[]"
        },
        {
          "name": "maxAmt",
          "type": "uint128",
          "internalType": "uint128"
        },
        {
          "name": "minAmt",
          "type": "uint128",
          "internalType": "uint128"
        },
        {
          "name": "data",
          "type": "bytes",
          "internalType": "bytes"
        },
        {
          "name": "flag",
          "type": "uint32",
          "internalType": "uint32"
        }
      ],
      "outputs": [],
      "stateMutability": "payable"
    },
    {
      "type": "function",
      "name": "fillBidOrder",
      "inputs": [
        {
          "name": "gridOrderId",
          "type": "uint256",
          "internalType": "uint256"
        },
        {
          "name": "amt",
          "type": "uint128",
          "internalType": "uint128"
        },
        {
          "name": "minAmt",
          "type": "uint128",
          "internalType": "uint128"
        },
        {
          "name": "data",
          "type": "bytes",
          "internalType": "bytes"
        },
        {
          "name": "flag",
          "type": "uint32",
          "internalType": "uint32"
        }
      ],
      "outputs": [],
      "stateMutability": "payable"
    },
    {
      "type": "function",
      "name": "fillBidOrders",
      "inputs": [
        {
          "name": "pairId",
          "type": "uint64",
          "internalType": "uint64"
        },
        {
          "name": "idList",
          "type": "uint256[]",
          "internalType": "uint256[]"
        },
        {
          "name": "amtList",
          "type": "uint128[]",
          "internalType": "uint128[]"
        },
        {
          "name": "maxAmt",
          "type": "uint128",
          "internalType": "uint128"
        },
        {
          "name": "minAmt",
          "type": "uint128",
          "internalType": "uint128"
        },
        {
          "name": "data",
          "type": "bytes",
          "internalType": "bytes"
        },
        {
          "name": "flag",
          "type": "uint32",
          "internalType": "uint32"
        }
      ],
      "outputs": [],
      "stateMutability": "payable"
    },
    {
      "type": "function",
      "name": "getGridConfig",
      "inputs": [
        {
          "name": "gridId",
          "type": "uint96",
          "internalType": "uint96"
        }
      ],
      "outputs": [
        {
          "name": "",
          "type": "tuple",
          "internalType": "struct IGridOrder.GridConfig",
          "components": [
            {
              "name": "owner",
              "type": "address",
              "internalType": "address"
            },
            {
              "name": "askStrategy",
              "type": "address",
              "internalType": "contract IGridStrategy"
            },
            {
              "name": "bidStrategy",
              "type": "address",
              "internalType": "contract IGridStrategy"
            },
            {
              "name": "profits",
              "type": "uint128",
              "internalType": "uint128"
            },
            {
              "name": "baseAmt",
              "type": "uint128",
              "internalType": "uint128"
            },
            {
              "name": "startAskOrderId",
              "type": "uint128",
              "internalType": "uint128"
            },
            {
              "name": "startBidOrderId",
              "type": "uint128",
              "internalType": "uint128"
            },
            {
              "name": "gridId",
              "type": "uint128",
              "internalType": "uint128"
            },
            {
              "name": "pairId",
              "type": "uint64",
              "internalType": "uint64"
            },
            {
              "name": "askOrderCount",
              "type": "uint32",
              "internalType": "uint32"
            },
            {
              "name": "bidOrderCount",
              "type": "uint32",
              "internalType": "uint32"
            },
            {
              "name": "fee",
              "type": "uint32",
              "internalType": "uint32"
            },
            {
              "name": "compound",
              "type": "bool",
              "internalType": "bool"
            },
            {
              "name": "oneshot",
              "type": "bool",
              "internalType": "bool"
            },
            {
              "name": "status",
              "type": "uint32",
              "internalType": "uint32"
            }
          ]
        }
      ],
      "stateMutability": "view"
    },
    {
      "type": "function",
      "name": "getGridOrder",
      "inputs": [
        {
          "name": "id",
          "type": "uint256",
          "internalType": "uint256"
        }
      ],
      "outputs": [
        {
          "name": "",
          "type": "tuple",
          "internalType": "struct IGridOrder.OrderInfo",
          "components": [
            {
              "name": "isAsk",
              "type": "bool",
              "internalType": "bool"
            },
            {
              "name": "compound",
              "type": "bool",
              "internalType": "bool"
            },
            {
              "name": "oneshot",
              "type": "bool",
              "internalType": "bool"
            },
            {
              "name": "fee",
              "type": "uint32",
              "internalType": "uint32"
            },
            {
              "name": "status",
              "type": "uint32",
              "internalType": "uint32"
            },
            {
              "name": "gridId",
              "type": "uint128",
              "internalType": "uint128"
            },
            {
              "name": "orderId",
              "type": "uint128",
              "internalType": "uint128"
            },
            {
              "name": "amount",
              "type": "uint128",
              "internalType": "uint128"
            },
            {
              "name": "revAmount",
              "type": "uint128",
              "internalType": "uint128"
            },
            {
              "name": "baseAmt",
              "type": "uint128",
              "internalType": "uint128"
            },
            {
              "name": "price",
              "type": "uint256",
              "internalType": "uint256"
            },
            {
              "name": "revPrice",
              "type": "uint256",
              "internalType": "uint256"
            },
            {
              "name": "pairId",
              "type": "uint64",
              "internalType": "uint64"
            }
          ]
        }
      ],
      "stateMutability": "view"
    },
    {
      "type": "function",
      "name": "getGridOrders",
      "inputs": [
        {
          "name": "idList",
          "type": "uint256[]",
          "internalType": "uint256[]"
        }
      ],
      "outputs": [
        {
          "name": "",
          "type": "tuple[]",
          "internalType": "struct IGridOrder.OrderInfo[]",
          "components": [
            {
              "name": "isAsk",
              "type": "bool",
              "internalType": "bool"
            },
            {
              "name": "compound",
              "type": "bool",
              "internalType": "bool"
            },
            {
              "name": "oneshot",
              "type": "bool",
              "internalType": "bool"
            },
            {
              "name": "fee",
              "type": "uint32",
              "internalType": "uint32"
            },
            {
              "name": "status",
              "type": "uint32",
              "internalType": "uint32"
            },
            {
              "name": "gridId",
              "type": "uint128",
              "internalType": "uint128"
            },
            {
              "name": "orderId",
              "type": "uint128",
              "internalType": "uint128"
            },
            {
              "name": "amount",
              "type": "uint128",
              "internalType": "uint128"
            },
            {
              "name": "revAmount",
              "type": "uint128",
              "internalType": "uint128"
            },
            {
              "name": "baseAmt",
              "type": "uint128",
              "internalType": "uint128"
            },
            {
              "name": "price",
              "type": "uint256",
              "internalType": "uint256"
            },
            {
              "name": "revPrice",
              "type": "uint256",
              "internalType": "uint256"
            },
            {
              "name": "pairId",
              "type": "uint64",
              "internalType": "uint64"
            }
          ]
        }
      ],
      "stateMutability": "view"
    },
    {
      "type": "function",
      "name": "getGridProfits",
      "inputs": [
        {
          "name": "gridId",
          "type": "uint96",
          "internalType": "uint96"
        }
      ],
      "outputs": [
        {
          "name": "",
          "type": "uint256",
          "internalType": "uint256"
        }
      ],
      "stateMutability": "view"
    },
    {
      "type": "function",
      "name": "getOneshotProtocolFeeBps",
      "inputs": [],
      "outputs": [
        {
          "name": "",
          "type": "uint32",
          "internalType": "uint32"
        }
      ],
      "stateMutability": "view"
    },
    {
      "type": "function",
      "name": "getOrCreatePair",
      "inputs": [
        {
          "name": "base",
          "type": "address",
          "internalType": "Currency"
        },
        {
          "name": "quote",
          "type": "address",
          "internalType": "Currency"
        }
      ],
      "outputs": [
        {
          "name": "",
          "type": "tuple",
          "internalType": "struct IPair.Pair",
          "components": [
            {
              "name": "base",
              "type": "address",
              "internalType": "Currency"
            },
            {
              "name": "quote",
              "type": "address",
              "internalType": "Currency"
            },
            {
              "name": "pairId",
              "type": "uint64",
              "internalType": "uint64"
            }
          ]
        }
      ],
      "stateMutability": "nonpayable"
    },
    {
      "type": "function",
      "name": "getPair",
      "inputs": [
        {
          "name": "",
          "type": "address",
          "internalType": "Currency"
        },
        {
          "name": "",
          "type": "address",
          "internalType": "Currency"
        }
      ],
      "outputs": [
        {
          "name": "base",
          "type": "address",
          "internalType": "Currency"
        },
        {
          "name": "quote",
          "type": "address",
          "internalType": "Currency"
        },
        {
          "name": "pairId",
          "type": "uint64",
          "internalType": "uint64"
        }
      ],
      "stateMutability": "view"
    },
    {
      "type": "function",
      "name": "getPairById",
      "inputs": [
        {
          "name": "",
          "type": "uint64",
          "internalType": "uint64"
        }
      ],
      "outputs": [
        {
          "name": "base",
          "type": "address",
          "internalType": "Currency"
        },
        {
          "name": "quote",
          "type": "address",
          "internalType": "Currency"
        },
        {
          "name": "pairId",
          "type": "uint64",
          "internalType": "uint64"
        }
      ],
      "stateMutability": "view"
    },
    {
      "type": "function",
      "name": "getPairIdByTokens",
      "inputs": [
        {
          "name": "base",
          "type": "address",
          "internalType": "Currency"
        },
        {
          "name": "quote",
          "type": "address",
          "internalType": "Currency"
        }
      ],
      "outputs": [
        {
          "name": "",
          "type": "uint64",
          "internalType": "uint64"
        }
      ],
      "stateMutability": "view"
    },
    {
      "type": "function",
      "name": "getPairTokens",
      "inputs": [
        {
          "name": "pairId",
          "type": "uint64",
          "internalType": "uint64"
        }
      ],
      "outputs": [
        {
          "name": "base",
          "type": "address",
          "internalType": "Currency"
        },
        {
          "name": "quote",
          "type": "address",
          "internalType": "Currency"
        }
      ],
      "stateMutability": "view"
    },
    {
      "type": "function",
      "name": "initialize",
      "inputs": [
        {
          "name": "_weth",
          "type": "address",
          "internalType": "address"
        },
        {
          "name": "_usd",
          "type": "address",
          "internalType": "address"
        }
      ],
      "outputs": [],
      "stateMutability": "nonpayable"
    },
    {
      "type": "function",
      "name": "initialized",
      "inputs": [],
      "outputs": [
        {
          "name": "",
          "type": "bool",
          "internalType": "bool"
        }
      ],
      "stateMutability": "view"
    },
    {
      "type": "function",
      "name": "isStrategyWhitelisted",
      "inputs": [
        {
          "name": "strategy",
          "type": "address",
          "internalType": "address"
        }
      ],
      "outputs": [
        {
          "name": "",
          "type": "bool",
          "internalType": "bool"
        }
      ],
      "stateMutability": "view"
    },
    {
      "type": "function",
      "name": "modifyGridFee",
      "inputs": [
        {
          "name": "gridId",
          "type": "uint128",
          "internalType": "uint128"
        },
        {
          "name": "fee",
          "type": "uint32",
          "internalType": "uint32"
        }
      ],
      "outputs": [],
      "stateMutability": "nonpayable"
    },
    {
      "type": "function",
      "name": "nextPairId",
      "inputs": [],
      "outputs": [
        {
          "name": "",
          "type": "uint64",
          "internalType": "uint64"
        }
      ],
      "stateMutability": "view"
    },
    {
      "type": "function",
      "name": "owner",
      "inputs": [],
      "outputs": [
        {
          "name": "",
          "type": "address",
          "internalType": "address"
        }
      ],
      "stateMutability": "view"
    },
    {
      "type": "function",
      "name": "pause",
      "inputs": [],
      "outputs": [],
      "stateMutability": "nonpayable"
    },
    {
      "type": "function",
      "name": "paused",
      "inputs": [],
      "outputs": [
        {
          "name": "",
          "type": "bool",
          "internalType": "bool"
        }
      ],
      "stateMutability": "view"
    },
    {
      "type": "function",
      "name": "placeETHGridOrders",
      "inputs": [
        {
          "name": "base",
          "type": "address",
          "internalType": "Currency"
        },
        {
          "name": "quote",
          "type": "address",
          "internalType": "Currency"
        },
        {
          "name": "param",
          "type": "tuple",
          "internalType": "struct IGridOrder.GridOrderParam",
          "components": [
            {
              "name": "askStrategy",
              "type": "address",
              "internalType": "contract IGridStrategy"
            },
            {
              "name": "bidStrategy",
              "type": "address",
              "internalType": "contract IGridStrategy"
            },
            {
              "name": "askData",
              "type": "bytes",
              "internalType": "bytes"
            },
            {
              "name": "bidData",
              "type": "bytes",
              "internalType": "bytes"
            },
            {
              "name": "askOrderCount",
              "type": "uint32",
              "internalType": "uint32"
            },
            {
              "name": "bidOrderCount",
              "type": "uint32",
              "internalType": "uint32"
            },
            {
              "name": "fee",
              "type": "uint32",
              "internalType": "uint32"
            },
            {
              "name": "compound",
              "type": "bool",
              "internalType": "bool"
            },
            {
              "name": "oneshot",
              "type": "bool",
              "internalType": "bool"
            },
            {
              "name": "baseAmount",
              "type": "uint128",
              "internalType": "uint128"
            }
          ]
        }
      ],
      "outputs": [],
      "stateMutability": "payable"
    },
    {
      "type": "function",
      "name": "placeGridOrders",
      "inputs": [
        {
          "name": "base",
          "type": "address",
          "internalType": "Currency"
        },
        {
          "name": "quote",
          "type": "address",
          "internalType": "Currency"
        },
        {
          "name": "param",
          "type": "tuple",
          "internalType": "struct IGridOrder.GridOrderParam",
          "components": [
            {
              "name": "askStrategy",
              "type": "address",
              "internalType": "contract IGridStrategy"
            },
            {
              "name": "bidStrategy",
              "type": "address",
              "internalType": "contract IGridStrategy"
            },
            {
              "name": "askData",
              "type": "bytes",
              "internalType": "bytes"
            },
            {
              "name": "bidData",
              "type": "bytes",
              "internalType": "bytes"
            },
            {
              "name": "askOrderCount",
              "type": "uint32",
              "internalType": "uint32"
            },
            {
              "name": "bidOrderCount",
              "type": "uint32",
              "internalType": "uint32"
            },
            {
              "name": "fee",
              "type": "uint32",
              "internalType": "uint32"
            },
            {
              "name": "compound",
              "type": "bool",
              "internalType": "bool"
            },
            {
              "name": "oneshot",
              "type": "bool",
              "internalType": "bool"
            },
            {
              "name": "baseAmount",
              "type": "uint128",
              "internalType": "uint128"
            }
          ]
        }
      ],
      "outputs": [],
      "stateMutability": "nonpayable"
    },
    {
      "type": "function",
      "name": "quotableTokens",
      "inputs": [
        {
          "name": "",
          "type": "address",
          "internalType": "Currency"
        }
      ],
      "outputs": [
        {
          "name": "",
          "type": "uint256",
          "internalType": "uint256"
        }
      ],
      "stateMutability": "view"
    },
    {
      "type": "function",
      "name": "rescueEth",
      "inputs": [
        {
          "name": "to",
          "type": "address",
          "internalType": "address"
        },
        {
          "name": "amount",
          "type": "uint256",
          "internalType": "uint256"
        }
      ],
      "outputs": [],
      "stateMutability": "nonpayable"
    },
    {
      "type": "function",
      "name": "setOneshotProtocolFeeBps",
      "inputs": [
        {
          "name": "feeBps",
          "type": "uint32",
          "internalType": "uint32"
        }
      ],
      "outputs": [],
      "stateMutability": "nonpayable"
    },
    {
      "type": "function",
      "name": "setQuoteToken",
      "inputs": [
        {
          "name": "token",
          "type": "address",
          "internalType": "Currency"
        },
        {
          "name": "priority",
          "type": "uint256",
          "internalType": "uint256"
        }
      ],
      "outputs": [],
      "stateMutability": "nonpayable"
    },
    {
      "type": "function",
      "name": "setStrategyWhitelist",
      "inputs": [
        {
          "name": "strategy",
          "type": "address",
          "internalType": "address"
        },
        {
          "name": "whitelisted",
          "type": "bool",
          "internalType": "bool"
        }
      ],
      "outputs": [],
      "stateMutability": "nonpayable"
    },
    {
      "type": "function",
      "name": "transferOwnership",
      "inputs": [
        {
          "name": "newOwner",
          "type": "address",
          "internalType": "address"
        }
      ],
      "outputs": [],
      "stateMutability": "nonpayable"
    },
    {
      "type": "function",
      "name": "unpause",
      "inputs": [],
      "outputs": [],
      "stateMutability": "nonpayable"
    },
    {
      "type": "function",
      "name": "vault",
      "inputs": [],
      "outputs": [
        {
          "name": "",
          "type": "address",
          "internalType": "address"
        }
      ],
      "stateMutability": "view"
    },
    {
      "type": "function",
      "name": "whitelistedStrategies",
      "inputs": [
        {
          "name": "",
          "type": "address",
          "internalType": "address"
        }
      ],
      "outputs": [
        {
          "name": "",
          "type": "bool",
          "internalType": "bool"
        }
      ],
      "stateMutability": "view"
    },
    {
      "type": "function",
      "name": "withdrawGridProfits",
      "inputs": [
        {
          "name": "gridId",
          "type": "uint128",
          "internalType": "uint128"
        },
        {
          "name": "amt",
          "type": "uint256",
          "internalType": "uint256"
        },
        {
          "name": "to",
          "type": "address",
          "internalType": "address"
        },
        {
          "name": "flag",
          "type": "uint32",
          "internalType": "uint32"
        }
      ],
      "outputs": [],
      "stateMutability": "nonpayable"
    },
    {
      "type": "event",
      "name": "CancelGridOrder",
      "inputs": [
        {
          "name": "owner",
          "type": "address",
          "indexed": true,
          "internalType": "address"
        },
        {
          "name": "orderId",
          "type": "uint128",
          "indexed": true,
          "internalType": "uint128"
        },
        {
          "name": "gridId",
          "type": "uint128",
          "indexed": true,
          "internalType": "uint128"
        }
      ],
      "anonymous": false
    },
    {
      "type": "event",
      "name": "CancelWholeGrid",
      "inputs": [
        {
          "name": "owner",
          "type": "address",
          "indexed": true,
          "internalType": "address"
        },
        {
          "name": "gridId",
          "type": "uint128",
          "indexed": true,
          "internalType": "uint128"
        }
      ],
      "anonymous": false
    },
    {
      "type": "event",
      "name": "FilledOrder",
      "inputs": [
        {
          "name": "taker",
          "type": "address",
          "indexed": false,
          "internalType": "address"
        },
        {
          "name": "gridOrderId",
          "type": "uint256",
          "indexed": false,
          "internalType": "uint256"
        },
        {
          "name": "baseAmt",
          "type": "uint256",
          "indexed": false,
          "internalType": "uint256"
        },
        {
          "name": "quoteVol",
          "type": "uint256",
          "indexed": false,
          "internalType": "uint256"
        },
        {
          "name": "orderAmt",
          "type": "uint256",
          "indexed": false,
          "internalType": "uint256"
        },
        {
          "name": "orderRevAmt",
          "type": "uint256",
          "indexed": false,
          "internalType": "uint256"
        },
        {
          "name": "isAsk",
          "type": "bool",
          "indexed": false,
          "internalType": "bool"
        }
      ],
      "anonymous": false
    },
    {
      "type": "event",
      "name": "GridFeeChanged",
      "inputs": [
        {
          "name": "sender",
          "type": "address",
          "indexed": true,
          "internalType": "address"
        },
        {
          "name": "gridId",
          "type": "uint256",
          "indexed": false,
          "internalType": "uint256"
        },
        {
          "name": "fee",
          "type": "uint32",
          "indexed": false,
          "internalType": "uint32"
        }
      ],
      "anonymous": false
    },
    {
      "type": "event",
      "name": "GridOrderCreated",
      "inputs": [
        {
          "name": "owner",
          "type": "address",
          "indexed": true,
          "internalType": "address"
        },
        {
          "name": "pairId",
          "type": "uint64",
          "indexed": false,
          "internalType": "uint64"
        },
        {
          "name": "amount",
          "type": "uint256",
          "indexed": false,
          "internalType": "uint256"
        },
        {
          "name": "gridId",
          "type": "uint128",
          "indexed": false,
          "internalType": "uint128"
        },
        {
          "name": "askOrderId",
          "type": "uint256",
          "indexed": false,
          "internalType": "uint256"
        },
        {
          "name": "bidOrderId",
          "type": "uint256",
          "indexed": false,
          "internalType": "uint256"
        },
        {
          "name": "asks",
          "type": "uint32",
          "indexed": false,
          "internalType": "uint32"
        },
        {
          "name": "bids",
          "type": "uint32",
          "indexed": false,
          "internalType": "uint32"
        },
        {
          "name": "fee",
          "type": "uint32",
          "indexed": false,
          "internalType": "uint32"
        },
        {
          "name": "compound",
          "type": "bool",
          "indexed": false,
          "internalType": "bool"
        },
        {
          "name": "oneshot",
          "type": "bool",
          "indexed": false,
          "internalType": "bool"
        }
      ],
      "anonymous": false
    },
    {
      "type": "event",
      "name": "OneshotProtocolFeeChanged",
      "inputs": [
        {
          "name": "sender",
          "type": "address",
          "indexed": true,
          "internalType": "address"
        },
        {
          "name": "oldFeeBps",
          "type": "uint32",
          "indexed": false,
          "internalType": "uint32"
        },
        {
          "name": "newFeeBps",
          "type": "uint32",
          "indexed": false,
          "internalType": "uint32"
        }
      ],
      "anonymous": false
    },
    {
      "type": "event",
      "name": "OwnershipTransferred",
      "inputs": [
        {
          "name": "user",
          "type": "address",
          "indexed": true,
          "internalType": "address"
        },
        {
          "name": "newOwner",
          "type": "address",
          "indexed": true,
          "internalType": "address"
        }
      ],
      "anonymous": false
    },
    {
      "type": "event",
      "name": "PairCreated",
      "inputs": [
        {
          "name": "base",
          "type": "address",
          "indexed": true,
          "internalType": "Currency"
        },
        {
          "name": "quote",
          "type": "address",
          "indexed": true,
          "internalType": "Currency"
        },
        {
          "name": "pairId",
          "type": "uint64",
          "indexed": false,
          "internalType": "uint64"
        }
      ],
      "anonymous": false
    },
    {
      "type": "event",
      "name": "Paused",
      "inputs": [
        {
          "name": "account",
          "type": "address",
          "indexed": false,
          "internalType": "address"
        }
      ],
      "anonymous": false
    },
    {
      "type": "event",
      "name": "QuotableTokenUpdated",
      "inputs": [
        {
          "name": "quote",
          "type": "address",
          "indexed": false,
          "internalType": "Currency"
        },
        {
          "name": "priority",
          "type": "uint256",
          "indexed": false,
          "internalType": "uint256"
        }
      ],
      "anonymous": false
    },
    {
      "type": "event",
      "name": "RefundFailed",
      "inputs": [
        {
          "name": "to",
          "type": "address",
          "indexed": true,
          "internalType": "address"
        },
        {
          "name": "amount",
          "type": "uint256",
          "indexed": false,
          "internalType": "uint256"
        }
      ],
      "anonymous": false
    },
    {
      "type": "event",
      "name": "StrategyWhitelistUpdated",
      "inputs": [
        {
          "name": "sender",
          "type": "address",
          "indexed": true,
          "internalType": "address"
        },
        {
          "name": "strategy",
          "type": "address",
          "indexed": true,
          "internalType": "address"
        },
        {
          "name": "whitelisted",
          "type": "bool",
          "indexed": false,
          "internalType": "bool"
        }
      ],
      "anonymous": false
    },
    {
      "type": "event",
      "name": "Unpaused",
      "inputs": [
        {
          "name": "account",
          "type": "address",
          "indexed": false,
          "internalType": "address"
        }
      ],
      "anonymous": false
    },
    {
      "type": "event",
      "name": "WithdrawProfit",
      "inputs": [
        {
          "name": "gridId",
          "type": "uint128",
          "indexed": false,
          "internalType": "uint128"
        },
        {
          "name": "quote",
          "type": "address",
          "indexed": false,
          "internalType": "Currency"
        },
        {
          "name": "to",
          "type": "address",
          "indexed": false,
          "internalType": "address"
        },
        {
          "name": "amt",
          "type": "uint256",
          "indexed": false,
          "internalType": "uint256"
        }
      ],
      "anonymous": false
    },
    {
      "type": "error",
      "name": "CallbackInsufficientInput",
      "inputs": []
    },
    {
      "type": "error",
      "name": "CannotModifyOneshotFee",
      "inputs": []
    },
    {
      "type": "error",
      "name": "EnforcedPause",
      "inputs": []
    },
    {
      "type": "error",
      "name": "ExceedMaxAmount",
      "inputs": []
    },
    {
      "type": "error",
      "name": "ExpectedPause",
      "inputs": []
    },
    {
      "type": "error",
      "name": "FillReversedOneShotOrder",
      "inputs": []
    },
    {
      "type": "error",
      "name": "InvalidGridFee",
      "inputs": []
    },
    {
      "type": "error",
      "name": "InvalidGridId",
      "inputs": []
    },
    {
      "type": "error",
      "name": "InvalidPairId",
      "inputs": []
    },
    {
      "type": "error",
      "name": "InvalidParam",
      "inputs": []
    },
    {
      "type": "error",
      "name": "InvalidQuote",
      "inputs": []
    },
    {
      "type": "error",
      "name": "NoProfits",
      "inputs": []
    },
    {
      "type": "error",
      "name": "NotEnough",
      "inputs": []
    },
    {
      "type": "error",
      "name": "NotEnoughToFill",
      "inputs": []
    },
    {
      "type": "error",
      "name": "NotGridOwer",
      "inputs": []
    },
    {
      "type": "error",
      "name": "OrderCanceled",
      "inputs": []
    },
    {
      "type": "error",
      "name": "PairIdMismatch",
      "inputs": []
    },
    {
      "type": "error",
      "name": "StrategyNotWhitelisted",
      "inputs": []
    },
    {
      "type": "error",
      "name": "TokenOrderInvalid",
      "inputs": []
    },
    {
      "type": "error",
      "name": "ZeroBaseAmt",
      "inputs": []
    },
    {
      "type": "error",
      "name": "ZeroGridOrderCount",
      "inputs": []
    }
  ],
  "bytecode": {
    "object": "0x60803461019e57601f615fdb38819003918201601f19168301916001600160401b038311848410176101a257808492604094855283398101031261019e57610052602061004b836101b6565b92016101b6565b5f8054600160a01b600160e01b031916600160a01b178155600480546001600160a01b0319166001600160a01b0390941693841790556040519083907f8be0079c531659141344cd1fd0a4f28419497f9722a3daafe3b4186f6b6457e08180a36001600555600654921561016c57506001600160a01b03811615610137576001600160a81b0319909116600891821b610100600160a81b03161760065570010000000000000000000000000000000160075580547101f4800000000000000000000000000000016001600160a01b0319909116179055604051615e1090816101cb8239f35b60405162461bcd60e51b815260206004820152600d60248201526c1a5b9d985b1a59081d985d5b1d609a1b6044820152606490fd5b62461bcd60e51b815260206004820152600d60248201526c34b73b30b634b21037bbb732b960991b6044820152606490fd5b5f80fd5b634e487b7160e01b5f52604160045260245ffd5b51906001600160a01b038216820361019e5756fe608080604052600436101561001c575b50361561001a575f80fd5b005b5f905f3560e01c90816308dc9239146125c9575080630a6524de146123105780630ee8325e1461226c578063158ef93e14612247578063175e811f146121ac5780632156de9f1461216557806322fe8ef2146120855780632bb13d4914611de4578063370e7bd314611a375780633f4ba83a146119c25780634587b31714611955578063485cc955146118085780635c975abb146117e55780636e97ec64146117ac5780637e795151146115535780638456cb59146114eb5780638da5cb5b146114c257806390a2956d146114625780639211555c1461142a578063968444ca146111a4578063999ba27c146111795780639b7e2f771461109f5780639e81f03014611078578063a48b0b691461104f578063abd5700914610fad578063ad5c464814610f86578063b699908e14610e79578063cc3414a114610a89578063ce778cfc1461062f578063d7cc3d35146105aa578063d7f56f76146104f1578063e6a4390514610476578063e9739623146103fc578063f2fde38b14610387578063f53e0d6e146102c0578063fbfa77cf14610293578063fc404e62146102075763fccf8c050361000f57346102045760203660031901126102045760209060ff906040906001600160a01b036101f06126f1565b168152600c84522054166040519015158152f35b80fd5b50346102045760403660031901126102045760406102236126f1565b9161022c6126db565b9260018060a01b031681526001602052209060018060a01b03165f5260205260206040805f206001600160401b03600183519261026884612737565b818060a01b038154168452015460018060a01b0381168584015260a01c169182910152604051908152f35b503461020457806003193601126102045760065460405160089190911c6001600160a01b03168152602090f35b50346102045760203660031901126102045760043563ffffffff8116808203610383576102f860018060a01b03600454163314612f26565b63ffffffff60085460801c1691620186a082118015610379575b61036a576008549063ffffffff60801b9060801b169063ffffffff60801b19161760085560405191825260208201527f24dfebe1d162b948de193e653fc3200eb07bf111990fcc419a6d2843aa9732fe60403392a280f35b6349be4f9960e01b8452600484fd5b5060648210610312565b8280fd5b5034610204576020366003190112610204576103a16126f1565b600454906103b9336001600160a01b03841614612f26565b6001600160a01b03166001600160a01b0319919091168117600455337f8be0079c531659141344cd1fd0a4f28419497f9722a3daafe3b4186f6b6457e08380a380f35b5034610204576040366003190112610204577f566baaca622ad157ec19cff5d971868568e2f5355b5ea72403d6bdf6db7e04e360406104396126f1565b6024359061045260018060a01b03600454163314612f26565b60018060a01b0316908185526003602052808386205582519182526020820152a180f35b50346102045760403660031901126102045760406104926126f1565b9161049b6126db565b6001600160a01b03938416825260016020818152939092209084165f9081529083526040908190208054920154815192851683529384169282019290925260a09290921c6001600160401b031690820152606090f35b503461020457610500366127a5565b91610509613318565b6001600160a01b038116158015610599575b61058a576001600160801b039283926105349233613365565b9193168061056b575b501680610548578280f35b6020909101516105659190309033906001600160a01b0316615d1c565b5f808280f35b83516105849190309033906001600160a01b0316615d1c565b5f61053d565b633494a40d60e21b8452600484fd5b506001600160a01b0382161561051b565b503461020457604036600319011261020457808080806105c86126f1565b6105dd60018060a01b03600454163314612f26565b602435905af16105eb613228565b50156105f45780f35b60405162461bcd60e51b8152602060048201526013602482015272115512081d1c985b9cd9995c8819985a5b1959606a1b6044820152606490fd5b5034610204576060366003190112610204576106496126f1565b6024356001600160801b0381168103610383576106646126c8565b916001600160801b0382168452600b60205260408420926040519361068885612707565b60018060a01b038154169283865260018060a01b03600183015416602087015260018060a01b03600283015416604087015260038201546001600160801b038116606088015260801c6080870152600482015460a08701946001600160801b038216865260c088019160801c825260066005850154946001600160801b03861660e08b01526001600160401b038660801c166101008b01526101208a019563ffffffff8160c01c16875260e01c6101408b015201549063ffffffff82166101608a015260ff8260201c1615156101808a015260ff8260281c1615156101a08a015263ffffffff6101c08a019260301c1682523303610a7a575163ffffffff16610a6b57879463ffffffff8994511690816109b7575b505063ffffffff6101408801511690816108fa575b5050856001600160801b0360608198015116806108c4575b506101006001600160401b03918888168a52600b602052600660408b2001660100000000000063ffffffff60301b198254161790550151168752600260205260408720936040519461081b86612737565b6001808060a01b038254169182885201549560406001600160401b03602083019860018060a01b0381168a5260a01c16910152816108ae575b505081610889575b5050505016337f9759b936d8e53a597dfcde7803bce801c41b2fcb342cf546f77cd57b339799058380a380f35b92516108a59360029390931692906001600160a01b031661329d565b5f80808061085c565b6108bd9183600187169261329d565b5f80610854565b6108da610100916001600160401b039395612d34565b938888168a52600b602052600360408b20018919815416905591506107ca565b519196929588959394608082901b6001600160801b0319169492936001600160801b0316925b63ffffffff88168581101561099c576109399085612e7f565b6001600160801b03811687178c52600960205260408c2054610988578798996001600160801b0363ffffffff93610974600194839b9c615a66565b9a1601981601990116985b98969594610920565b50949596600163ffffffff9101169861097f565b5096509491509592506001600160801b03969150955f6107b2565b6001600160801b039098959193929897949751169189965b63ffffffff881685811015610a58576109e89085612e7f565b6001600160801b0381166001600160801b03198860801b16178c52600960205260408c2054610a44578798996001600160801b0363ffffffff93610a30600194839b9c615a66565b9a1601981601990116985b989695946109cf565b50949596600163ffffffff91011698610a3b565b5096509250939690509491945f8061079d565b63d1f7307f60e01b8852600488fd5b630bd0188560e31b8952600489fd5b50610a93366128e0565b97610aab600160059b939998979594969b5414612db5565b6002600555610ab8613318565b838703610e6a57959894928993610acd612f61565b968c9260208901996001600160801b038316946001600160401b038615159716985b8110610cf6575b505050505050506001600160801b039192939495969750168015159081610ce2575b50610cd3579086929183526002602052604083209460405195610b3a87612737565b80546001600160a01b03908116808952600192909201549081166020890181815260a09290921c6001600160401b031660408a0152909890918315610c97575050610b93906001600160801b03604086015116906146f7565b8651610ba7906001600160a01b031661471d565b95610bc860018060a01b038251166001600160801b0386511690339061478e565b87519051865194516001600160801b03958616956001600160a01b039283169492909316921690333b15610c93578694610c17926040519788968796635033a39560e01b885260048801612ebf565b038183335af18015610c8857610c6f575b5050610c52916001600160801b03610c4292511690612d34565b91516001600160a01b031661471d565b10610c60575b600160055580f35b630cd106b760e21b8152600490fd5b81610c799161276d565b610c8457835f610c28565b8380fd5b6040513d84823e3d90fd5b8680fd5b9197509150610cce975060409450610cc592506001600160801b03809651168685511690349233908a614515565b015116906146f7565b610c58565b6366a3772b60e01b8752600487fd5b90506001600160801b03845116105f610b18565b610d028f829084612f02565b35610d2d610d19610d1484878a612f02565b612f12565b8d8a80610e4c575b610e31575b5082614045565b908a6001600160401b0360e08401511603610e1f578c6001600160801b038f818560409282610dde610dd586610dc88487819e610db6610dec9f8f905f516020615dbb5f395f51905f5290868095511690610da6602088019787895116908860c08160a08401511692015116918d519586953387612dee565b0390a182808d5116915116612e7f565b168d5251168560608901511690612e7f565b9501948386511690612e7f565b82845116612e7f565b169052511692015116612e7f565b1660408c01528680610e0b575b610e06576001018e610aef565b610af6565b50856001600160801b038c51161015610df9565b50505060048f6305bbd84160e31b8152fd5b51610e4691506001600160801b031687612a6e565b8d610d26565b506001600160801b03610e628382845116612e7f565b168a10610d21565b633494a40d60e21b8b5260048bfd5b5034610204576020366003190112610204576004356001600160401b038111610f8257610eaa9036906004016128b0565b90610eb48261278e565b91610ec2604051938461276d565b808352601f19610ed18261278e565b01845b818110610f6b575050835b818110610f38578385604051918291602083016020845282518091526020604085019301915b818110610f13575050500390f35b9193509160206101a082610f2a60019488516129a0565b019401910191849392610f05565b80610f4f610f496001938587612f02565b35614cf3565b610f598287612d41565b52610f648186612d41565b5001610edf565b602090610f766131b8565b82828801015201610ed4565b5080fd5b5034610204578060031936011261020457546040516001600160a01b039091168152602090f35b5034610204576020366003190112610204576001600160401b03610fcf61289a565b168152600260205260408120600160405191610fea83612737565b818060a01b0381541683520154906001600160401b03602082019260018060a01b038116845260a01c168060408301521561104057519051604080516001600160a01b0393841681529290911660208301529150f35b63a8c399e560e01b8352600483fd5b50346102045780600319360112610204576001600160401b036020915460a01c16604051908152f35b5034610204578060031936011261020457602063ffffffff60085460801c16604051908152f35b5034610204576040366003190112610204576110b96126f1565b60243590811515809203610383576110dc60018060a01b03600454163314612f26565b6001600160a01b031690811561113457818352600c6020526040832060ff1981541660ff83161790556040519081527fc043f95a82758053ee3070d0e672568e7807dfd1c7d5c16a5648bf452838f57c60203392a380f35b60405162461bcd60e51b815260206004820152601860248201527f496e76616c6964207374726174656779206164647265737300000000000000006044820152606490fd5b50346102045760203660031901126102045760209060ff906040906001600160a01b036101f06126f1565b5034610204576020366003190112610204576004356001600160601b038116809103610f8257816040516111d781612707565b8181528160208201528160408201528160608201528160808201528160a08201528160c08201528160e08201528161010082015281610120820152816101408201528161016082015281610180820152816101a08201526101c001528152600b602052604090206040519061124b82612707565b600160a01b60019003815416808352600160a01b600190036001830154169260208101938452600160a01b6001900360028401541660408201908152600384015460608301946001600160801b0382168652608084019160801c825260048101549160a085016001600160801b038416815260c086019360801c845260058301549360e08701916001600160801b03861683526101008801938660801c6001600160401b031685526101208901958760c01c63ffffffff1687526101408a019760e01c8852600601549a8b9a6101608b019963ffffffff8d168b526101808c019b8d60201c60ff1615158d526101a08101809e60281c60ff16151590526101c001809e60301c63ffffffff1690526040519e8f928352600160a01b600190039051166020830152600160a01b600190039051169060400152516001600160801b031660608d0152516001600160801b031660808c0152516001600160801b031660a08b0152516001600160801b031660c08a0152516001600160801b031660e0890152516001600160401b03166101008801525163ffffffff166101208701525163ffffffff166101408601525163ffffffff166101608501525115156101808401525115156101a08301525163ffffffff166101c08201526101e090f35b5034610204576020366003190112610204576114446131b8565b506101a0611453600435614cf3565b61146060405180926129a0565bf35b503461020457604036600319011261020457606061148f6114816126f1565b6114896126db565b90612f7f565b6040805182516001600160a01b03908116825260208085015190911690820152918101516001600160401b031690820152f35b50346102045780600319360112610204576004546040516001600160a01b039091168152602090f35b503461020457806003193601126102045761151160018060a01b03600454163314612f26565b611519613318565b600160ff1960065416176006557f62e78cea01bee320cd4e420270b5ea74000d11b0c9f74754ebdbfc544b05a2586020604051338152a180f35b506001600160801b036115906115683661282e565b9691929495909361157d600160055414612db5565b600260055561158a613318565b8661494b565b93168015159081611798575b50611789579085915f516020615dbb5f395f51905f526001600160801b0385511660208601966115fa6001600160801b038951166001600160801b0360a08a0151166001600160801b0360c08b015116916040519586953387612e37565b0390a16001600160401b0360e0850151168352600260205260408320956116766001600160801b036001604051996116318b612737565b818060a01b038154168b520154976001600160401b0360208b019960018060a01b0381168b5260a01c1660408b015251166001600160801b0360608801511690612a6e565b61168f60408701916001600160801b0383511690612a6e565b9184156117395750865190516116b9916001600160801b03909116906001600160a01b03166146f7565b85516116da906001600160801b0383169033906001600160a01b031661478e565b86516116ee906001600160a01b031661471d565b9560018060a01b038851169060018060a01b03905116916001600160801b0387511694333b15610c93578694610c17926040519788968796635033a39560e01b885260048801612ebf565b975187519651610cce9992986001600160801b0398909750611776965092945034938816929088169133916001600160a01b039081169116614515565b51915116906001600160a01b03166146f7565b6366a3772b60e01b8652600486fd5b90506001600160801b03845116105f61159c565b5034610204576020366003190112610204576020906040906001600160a01b036117d46126f1565b168152600383522054604051908152f35b5034610204578060031936011261020457602060ff600654166040519015158152f35b5034610204576040366003190112610204576118226126f1565b61182a6126db565b9061184060018060a01b03600454163314612f26565b6006549060ff8260a81c1661191a576001600160a01b03169182156118e6576001600160a01b03169081156118b35760ff60a81b1916600160a81b176006558252600360208181526040808520621000009055838552919052822062080000905581546001600160a01b03191617815580f35b60405162461bcd60e51b815260206004820152600b60248201526a1a5b9d985b1a59081d5cd960aa1b6044820152606490fd5b60405162461bcd60e51b815260206004820152600c60248201526b0d2dcecc2d8d2c840eecae8d60a31b6044820152606490fd5b60405162461bcd60e51b8152602060048201526013602482015272185b1c9958591e481a5b9a5d1a585b1a5e9959606a1b6044820152606490fd5b5034610204576020366003190112610204576040906001600160401b0361197a61289a565b168152600260209081529190208054600190910154604080516001600160a01b0393841681529282169383019390935260a01c6001600160401b031691810191909152606090f35b50346102045780600319360112610204576119e860018060a01b03600454163314612f26565b60065460ff811615611a285760ff19166006557f5db9ee0a495bf2e6ff9c91a7834c1ba4fdd244a5e8aa4e537bd38aeae4b073aa6020604051338152a180f35b638dfc202b60e01b8252600482fd5b50611a41366128e0565b9892919493611a59600160059a9398999a5414612db5565b6002600555611a66613318565b848903610e6a578a9889988996879493925b808610611c2c575b5050505050506001600160801b03168015159081611c19575b50611c0a57906001600160401b03889493921684526002602052604084209560405197611ac589612737565b87546001600160a01b03908116808b526001999099015490811660208b0181815260a09290921c6001600160401b031660408c015290988615611bd25750508751611b1a9291506001600160a01b03166146f7565b8551611b3b906001600160801b0383169033906001600160a01b031661478e565b8651611b4f906001600160a01b031661471d565b8751965190966001600160a01b0391821692911690333b15611bce57604051635033a39560e01b815294869486948594611b8f94918b9160048801612ebf565b038183335af18015610c8857611bb9575b5050610c52916001600160801b03610c42921690612d34565b81611bc39161276d565b610c8457835f611ba0565b8580fd5b919550919796929350610cce9850611bfb95506001600160801b03803495169316913391614515565b516001600160a01b03166146f7565b6366a3772b60e01b8852600488fd5b90506001600160801b038616105f611a99565b90919293949b8c989b611c4f610d14611c468c868b612f02565b359b8688612f02565b6001600160801b03871680151590611dc6575b611db1575b611c71908b61494b565b996001600160401b038a166001600160401b0360e08d01511603611da0578a516001600160801b031660208c01516001600160801b0316918c60a08101516001600160801b03169060c001516001600160801b0316906040519485943394611cd99587612e37565b035f516020615dbb5f395f51905f5291a189516001600160801b0316611cfe91612e7f565b9b60208a01516001600160801b031660608b01516001600160801b0316611d2491612a6e565b99604001998a516001600160801b0316611d3d91612a6e565b611d4691612e7f565b98516001600160801b0316611d5a91612e7f565b9b6001600160801b03851680151590611d84575b611d7f576001019493929190611a78565b611a80565b506001600160801b0385166001600160801b038d161015611d6e565b50506305bbd84160e31b8f5260048ffd5b50611c71611dbf8288612a6e565b9050611c67565b50611dd18288612a6e565b6001600160801b03808316911610611c62565b506001600160801b03611e21611df93661282e565b94969192959093611e0e600160055414612db5565b6002600555611e1b613318565b87614045565b94168015159081612071575b50612062575f516020615dbb5f395f51905f526001600160801b038551166020860196611e886001600160801b038951166001600160801b0360a08a0151166001600160801b0360c08b015116916040519586953387612dee565b0390a16001600160401b0360e0850151165f52600260205260405f2093611f046001600160801b03600160405197611ebf89612737565b818060a01b0381541689520154976001600160401b03602089019960018060a01b0381168b5260a01c16604089015251166001600160801b0360608401511690612e7f565b611f1d60408301916001600160801b0383511690612e7f565b948415612025575086519051611f47916001600160801b03909116906001600160a01b03166146f7565b8551611f5b906001600160a01b031661471d565b94611f7c60018060a01b038251166001600160801b0384511690339061478e565b8651905191516001600160a01b0392831692909116906001600160801b0316333b1561202157604051635033a39560e01b8152945f9486948594611fc694918a9160048801612ebf565b038183335af1801561201657611fef575b50610c52916001600160801b03610c42921690612d34565b610c42919450916120035f610c529461276d565b6001600160801b035f9592505091611fd7565b6040513d5f823e3d90fd5b5f80fd5b875196519251610cce9892976001600160801b0397939650611776955091933493918816929188169133916001600160a01b039081169116614515565b6366a3772b60e01b5f5260045ffd5b90506001600160801b03855116105f611e2d565b61208e366127a5565b9190612098613318565b905f826001600160a01b03831661212f5750505f546001600160a01b031692600191506120c8905b838533613365565b949150915f1461210f575061001a926120fb826120f16001600160801b03809516341015612d69565b8334169033613f3f565b1690309033906001600160a01b0316615d1c565b91506001600160801b03906120fb846120f18461001a9716341015612d69565b91939250906001600160a01b0316612156575f546001600160a01b0316916120c8906120c0565b633494a40d60e21b5f5260045ffd5b34612021576020366003190112612021576004356001600160601b038116809103612021575f52600b60205260206001600160801b03600360405f20015416604051908152f35b34612021576080366003190112612021576121c56126f1565b602435906121d16126c8565b9063ffffffff6121df6126b5565b9216906121eb8261278e565b916121f9604051938461276d565b808352601f196122088261278e565b013660208501378460801c905f5b81811061222957505061001a9450612aa2565b8061223660019289612d34565b6122408288612d41565b5201612216565b34612021575f36600319011261202157602060ff60065460a81c166040519015158152f35b346120215760803660031901126120215761228561269f565b61228d6126db565b906044356001600160401b0381116120215736602382011215612021578060040135926122b98461278e565b916122c7604051938461276d565b8483526024602084019560051b8201019036821161202157602401945b81861061230057505061001a93506122fa6126b5565b92612aa2565b85358152602095860195016122e4565b346120215760803660031901126120215761232961269f565b6044356001600160a01b03811691602435908383036120215761234a6126b5565b936001600160801b0383921692835f52600b60205260405f20926040519161237183612707565b60018060a01b0385541680845260018060a01b03600187015416602085015260018060a01b03600287015416604085015260038601549360608101946001600160801b038116865260801c608082015260048701546001600160801b03811660a083015260801c60c08201526101c063ffffffff600660058a0154996001600160801b038b1660e086015261010085019a6001600160401b038160801c168c52838160c01c1661012087015260e01c610140860152015481811661016085015260ff8160201c16151561018085015260ff8160281c1615156101a085015260301c1691015233036125ba57806125965750506001600160801b03815116925b831561258757600160801b841015612578577f8ed6627e906c863e71f8bbbdbda93721199b92f24d1e9cabf208e6233f0d8d91966080966001600160401b036125559351165f5260026020526001600160801b0360405f20946001604051966124d888612737565b818060a01b03815416885201549560406001600160401b03602083019860018060a01b0381168a5260a01c1691015251169061251e6001600160801b0388168093612a6e565b885f52600b6020526001600160801b03600360405f200191166001600160801b031982541617905560018060a01b0385511661329d565b51604080519485526001600160a01b0390911660208501528301526060820152a1005b634d9258af60e01b5f5260045ffd5b63a2fe08cf60e01b5f5260045ffd5b6001600160801b038395929551169081106125b2575b50612470565b9350876125ac565b630bd0188560e31b5f5260045ffd5b34612021576040366003190112612021576125e261269f565b6024359063ffffffff8216809203612021576001600160801b03165f818152600b6020526040902080546001600160a01b031633036125ba5760060160ff815460281c1661269057620186a083118015612686575b612677578263ffffffff19825416179055825260208201527fe7cc6ddb43ff353570441038138f3184378b17750db3bc639a2864dc927e8d7b60403392a2005b6349be4f9960e01b5f5260045ffd5b5060648310612637565b6337557c2760e21b5f5260045ffd5b600435906001600160801b038216820361202157565b6064359063ffffffff8216820361202157565b6044359063ffffffff8216820361202157565b602435906001600160a01b038216820361202157565b600435906001600160a01b038216820361202157565b6101e081019081106001600160401b0382111761272357604052565b634e487b7160e01b5f52604160045260245ffd5b606081019081106001600160401b0382111761272357604052565b604081019081106001600160401b0382111761272357604052565b90601f801991011681019081106001600160401b0382111761272357604052565b6001600160401b0381116127235760051b60200190565b6060600319820112612021576004356001600160a01b038116810361202157916024356001600160a01b03811681036120215791604435906001600160401b038211612021576101409082900360031901126120215760040190565b9181601f84011215612021578235916001600160401b038311612021576020838186019501011161202157565b9060a060031983011261202157600435916024356001600160801b038116810361202157916044356001600160801b03811681036120215791606435906001600160401b0382116120215761288591600401612801565b909160843563ffffffff811681036120215790565b600435906001600160401b038216820361202157565b9181601f84011215612021578235916001600160401b038311612021576020808501948460051b01011161202157565b9060e0600319830112612021576004356001600160401b038116810361202157916024356001600160401b038111612021578161291f916004016128b0565b929092916044356001600160401b0381116120215781612941916004016128b0565b929092916064356001600160801b038116810361202157916084356001600160801b0381168103612021579160a435906001600160401b0382116120215761298b91600401612801565b909160c43563ffffffff811681036120215790565b6001600160401b03610180809280511515855260208101511515602086015260408101511515604086015263ffffffff606082015116606086015263ffffffff60808201511660808601526001600160801b0360a08201511660a08601526001600160801b0360c08201511660c08601526001600160801b0360e08201511660e08601526001600160801b03610100820151166101008601526001600160801b0361012082015116610120860152610140810151610140860152610160810151610160860152015116910152565b906001600160801b03809116911603906001600160801b038211612a8e57565b634e487b7160e01b5f52601160045260245ffd5b6001600160801b03909392931690815f52600b60205260405f2060405190612ac982612707565b600660018060a01b038254169182845260018060a01b03600182015416602085015260018060a01b03600282015416604085015260038101546001600160801b038116606086015260801c608085015260048101546001600160801b03811660a086015260801c60c085015260058101546001600160801b03811660e08601526001600160401b038160801c1661010086015263ffffffff8160c01c1661012086015260e01c61014085015201549063ffffffff821661016084015260ff8260201c16151561018084015260ff8260281c1615156101a084015263ffffffff6101c084019260301c16825233036125ba575163ffffffff16612d16575f945f938151905f925b828410612c8457505050506101006001600160401b03910151165f52600260205260405f209360405194612c0286612737565b6001808060a01b038254169182885201549560406001600160401b03602083019860018060a01b0381168a5260a01c1691015281612c6e575b505081612c49575b50505050565b9251612c659360029390931692906001600160a01b031661329d565b5f808080612c43565b612c7d9183600187169261329d565b5f80612c3b565b90919295612c928783612d41565b51968760801c99846001600160801b038a169b03612d2557885f52600960205260405f2054612d16578a6001936001600160801b038793612cd4829f8c615a66565b9f16019d1601995f5260096020528360405f2055337f442fb45853c6ac8c98dfd371f504f465e11fc82ba19cd94ca9cdc13e00f8f36f5f80a401929190612bcf565b63d1f7307f60e01b5f5260045ffd5b630dcbb76b60e21b5f5260045ffd5b91908201809211612a8e57565b8051821015612d555760209160051b010190565b634e487b7160e01b5f52603260045260245ffd5b15612d7057565b60405162461bcd60e51b815260206004820152601d60248201527f4772696445783a20496e73756666696369656e74204554482073656e740000006044820152606490fd5b15612dbc57565b60405162461bcd60e51b815260206004820152600a6024820152695245454e5452414e435960b01b6044820152606490fd5b6001600160a01b03909116815260208101919091526001600160801b03918216604082015291811660608301529182166080820152911660a0820152600160c082015260e00190565b6001600160a01b03909116815260208101919091526001600160801b03918216604082015291811660608301529182166080820152911660a08201525f60c082015260e00190565b906001600160801b03809116911601906001600160801b038211612a8e57565b908060209392818452848401375f828201840152601f01601f1916010190565b6001600160a01b039182168152911660208201526001600160801b0391821660408201529116606082015260a060808201819052612eff93910191612e9f565b90565b9190811015612d555760051b0190565b356001600160801b03811681036120215790565b15612f2d57565b60405162461bcd60e51b815260206004820152600c60248201526b15539055551213d49256915160a21b6044820152606490fd5b60405190612f6e82612737565b5f6040838281528260208201520152565b612f87612f61565b506001600160a01b039081165f81815260016020818152604080842095871684529490529083902092519392612fbc85612737565b818060a01b03815416855201546001600160401b03602085019160018060a01b038116835260a01c169260408501938085526131b1576001600160a01b03165f81815260036020526040902054909390156131a2575f8381526003602052604080822054868352912054106131a2575f83815260036020526040808220548683529120541461318c575b5f54906001600160401b038260a01c16906001600160401b038214612a8e5767ffffffffffffffff60a01b600183810160a090811b831667ffffffffffffffff60a01b1996909616959095175f908155878a52888752848452878152602082815260408083208b845282529091208a5181546001600160a01b039182166001600160a01b03199091161782558851919093018054865190981b90941692166001600160e01b0319909616959095171790557f2a68d8602df0f298927c88b95f3359121d16da5adc7e13ee306e2f1b31832d8193613182916001600160401b03905f85815260028752604090208a5181546001600160a01b0319166001600160a01b039182161782559351600191909101805492516001600160e01b03199093169190941617911660a01b67ffffffffffffffff60a01b16179055565b604051908152a390565b8383106130465763147041b560e01b5f5260045ffd5b630f86180360e41b5f5260045ffd5b5050505090565b604051906101a082018281106001600160401b03821117612723576040525f610180838281528260208201528260408201528260608201528260808201528260a08201528260c08201528260e0820152826101008201528261012082015282610140820152826101608201520152565b3d15613261573d906001600160401b0382116127235760405191613256601f8201601f19166020018461276d565b82523d5f602084013e565b606090565b1561326d57565b60405162461bcd60e51b815260206004820152600860248201526709cdee840ae8aa8960c31b6044820152606490fd5b9263ffffffff166132b3576132b19261478e565b565b5f546001600160a01b03908116936132cd91168414613266565b823b15612021575f8093602460405180968193632e1a7d4d60e01b83528760048401525af1928315612016576132b193613308575b506159ed565b5f6133129161276d565b5f613302565b60ff6006541661332457565b63d93c066560e01b5f5260045ffd5b3563ffffffff811681036120215790565b356001600160a01b03811681036120215790565b3580151581036120215790565b929390613370612f61565b5061337d60808601613333565b9263ffffffff5f9416613f0b575b63ffffffff61339c60a08801613333565b16613ed4575b6133ab91612f7f565b936001600160401b036040860151169363ffffffff60085460801c1663ffffffff6133d860808501613333565b161580613ebb575b613eac576133f16101008401613358565b613e7e575060c08201620186a063ffffffff61340c83613333565b1611908115613e64575b50612677575b6001600160801b03806134326101208501612f12565b1663ffffffff61344460808601613333565b1602116125785763ffffffff61345c60a08401613333565b16613dab575b63ffffffff61347360808401613333565b16613ce1575b6001600160801b0360075416946001600160801b038614613ccd576001600160801b0360018701166001600160801b031960075416176007556134bf6101008401613358565b15613cbb5763ffffffff60085460801c16905b6008546001600160801b031660075460801c9261012086016134f390612f12565b916134fd87613344565b9461350a60208901613344565b9461351760808a01613333565b9161352460a08b01613333565b9361353160e08c01613358565b9661353f6101008d01613358565b986040519a61354d8c612707565b600160a01b600190038d168c52600160a01b600190031660208c0152600160a01b600190031660408b01528d60608b01526001600160801b031660808a015260a089015260c08801528b60e088015261010087015263ffffffff1661012086015263ffffffff1661014085015263ffffffff16610160840152151561018083015215156101a0820152846101c0820152858552600b60205260408520600160a01b60019003600160a01b60019003835116166001600160601b0360a01b825416178155600160a01b600190036020830151166001820190600160a01b60019003166001600160601b0360a01b825416179055600160a01b600190036040830151166002820190600160a01b60019003166001600160601b0360a01b8254161790556003810160608301516001600160801b03166001600160801b03166001600160801b031982541617815560808301516001600160801b03166136c491906001600160801b0382549181199060801b169116179055565b60a082015160c083015160801b6001600160801b0319166001600160801b039091161760048201556005810160e08301516001600160801b03166001600160801b03166001600160801b0319825416178155610100830151815463ffffffff60c01b61012086015160c01b169063ffffffff60e01b61014087015160e01b16926001600160401b0360801b9060801b16906001600160801b031617171790556006019061016081015163ffffffff1663ffffffff1663ffffffff19835416178255610180810151151582546101a0830151151560281b65ff0000000000169160201b64ff00000000169065ffff000000001916171782556101c0015181549060301b63ffffffff60301b1663ffffffff60301b169063ffffffff60301b191617905561012082016137f490612f12565b8492838061380460808401613333565b63ffffffff16613be2575b63ffffffff61382060a08501613333565b1661396e575b608089811b6001600160801b0319166001600160801b0392831681179783161794919063ffffffff9061385a908601613333565b16911602966001600160801b03881697880361395a5750959660408901516001600160401b031694610120830161389090612f12565b9361389d60808501613333565b906138aa60a08601613333565b926138b760c08701613333565b946138c460e08801613358565b96610100016138d290613358565b976040519a8b526001600160801b031660208b015260408a01526060890152608088015263ffffffff1660a087015263ffffffff1660c086015263ffffffff1660e085015215156101008401521515610120830152600160a01b6001900316906101407fe0c3f8348470e3d21123142f9982a8449499a9b74c868420a710335424113b0791a2565b634e487b7160e01b81526011600452602490fd5b9892959193909697945060075460801c9061399a63ffffffff61399360a08801613333565b1683612e7f565b600780546001600160801b031660809290921b6001600160801b0319169190911790556001600160a01b036139d160208701613344565b166139df6060870187615cea565b8291923b15613bde57918b91613a2193838b604051968795869485936334dbeb0360e11b85528560048601526024850152606060448501526064840191612e9f565b03925af18015613bd357908a91613bba575b505088975b63ffffffff613a4960a08801613333565b166001600160801b038a161015613bab578860208860648d6001600160a01b03613a748c8601613344565b166001600160801b036040519687958694630e64462360e41b8652600486015260248501521660448301525afa908115613b6f578b91613b7a575b506040519063657c28b360e11b82526001600160801b038a16600483015260248201528a604482015260208160648173__$abf3f930358ab14c0a62d1616736e4105f$__5af4908115613b6f578b91613b21575b50613b186001916001600160801b0393612e7f565b99011697613a38565b90506020813d8211613b67575b81613b3b6020938361276d565b81010312613b6357613b186001600160801b0392613b5a600193614010565b92509250613b03565b8a80fd5b3d9150613b2e565b6040513d8d823e3d90fd5b90506020813d8211613ba3575b81613b946020938361276d565b8101031261202157515f613aaf565b3d9150613b87565b91959897509391959298613826565b81613bc49161276d565b613bcf57885f613a33565b8880fd5b6040513d8c823e3d90fd5b8b80fd5b506001600160801b03600854166001600160801b03613c0b63ffffffff61399360808701613333565b166001600160801b0319600854161760085560018060a01b03613c2d84613344565b16613c3b6040850185615cea565b8291923b15613b6357918a91613c7e93838e604051968795869485936334dbeb0360e11b8552600160048601526024850152606060448501526064840191612e9f565b03925af18015613cb057908991613c97575b505061380f565b81613ca19161276d565b613cac57875f613c90565b8780fd5b6040513d8b823e3d90fd5b613cc760c08401613333565b906134d2565b634e487b7160e01b85526011600452602485fd5b6001600160a01b03613cf283613344565b16613d006101208401612f12565b90613d0e6040850185615cea565b919092613d1d60808701613333565b823b15613bcf57889392916001600160801b039163ffffffff613d6b604051988997889687966317da596b60e21b885260016004890152166024870152608060448701526084860191612e9f565b9116606483015203915afa8015613da057908591613d8b575b5050613479565b81613d959161276d565b610c8457835f613d84565b6040513d87823e3d90fd5b6001600160a01b03613dbf60208401613344565b16613dcd6101208401612f12565b613dda6060850185615cea565b9092613de860a08701613333565b813b15612021575f936001600160801b039163ffffffff613e33604051988997889687966317da596b60e21b88528b6004890152166024870152608060448701526084860191612e9f565b9116606483015203915afa801561201657613e4f575b50613462565b613e5c9194505f9061276d565b5f925f613e49565b60649150613e7663ffffffff91613333565b16105f613416565b620186a08111908115613ea1575b501561341c576349be4f9960e01b5f5260045ffd5b60649150105f613e8c565b630bea7def60e01b5f5260045ffd5b5063ffffffff613ecd60a08501613333565b16156133e0565b6001600160a01b03613ee860208801613344565b165f52600c60205260ff60405f2054166133a257632efd965160e11b5f5260045ffd5b6001600160a01b03613f1c87613344565b165f52600c60205260ff60405f20541661338b57632efd965160e11b5f5260045ffd5b5f549091906001600160801b038216906001600160a01b0316803b15612021575f8291600460405180948193630d0e30db60e41b83525af1801561201657613fb3575b506001600160801b03841611613f9757505050565b613fac6001600160801b03916132b194612a6e565b16906159ed565b5f613fbd9161276d565b5f613f82565b6040519061010082018281106001600160401b03821117612723576040525f60e0838281528260208201528260408201528260608201528260808201528260a08201528260c08201520152565b51906001600160801b038216820361202157565b919082604091031261202157612eff602061403e84614010565b9301614010565b9061404e613fc3565b9161405a8160076153b0565b8051909290156144d3576001600160801b0360e0840151166001600160801b036101008501511691610140850151915b6001600160801b0381166001600160801b038316116144cb575b6001600160801b0382169182156144bc5773__$abf3f930358ab14c0a62d1616736e4105f$__916040519463657c28b360e11b8652846004870152602486015260016044860152602085606481865af4948515612016575f95614480575b50604088018051909290156143f157606089015160408051636d91ec6f60e01b81526001600160801b038916600482015263ffffffff909216602483015290929083604481885af48015612016576001600160801b03938c85925f925f916143ba575b5083604091169101521660608c01525b031691602088015115155f146142ac57506141a86001600160801b03956141a28760608c01511687612e7f565b90612e7f565b87511561429a5785908360a08b01521660c08901525115159081614291575b5061427d575b8552166020808501919091526101808301516001600160401b031660e08501525f918252600a90526040902060a083015160c084015160801b6001600160801b0319166001600160801b03919091161790555b6001600160801b03608083015116908161423957505090565b60a06001600160801b03910151165f52600b6020526001600160801b0361426a600360405f20019282845416612e7f565b166001600160801b031982541617905590565b835f526009602052600160405f20556141cd565b9050155f6141c7565b851660a08901525060c08701526141cd565b8751909590156143ad5760206101608901515b60646001600160801b036101208c015116604051998a93849263657c28b360e11b8452600484015260248301525f60448301525af48015612016575f9061436d575b6001600160801b039650808716908288168211614330575050858060608b01511686011660808a01525b6141a8565b90918760608c0151168881818a85011601169384115f1461435d57505080879192031660808a01526141a8565b87018816018716915061432b9050565b506020863d6020116143a5575b816143876020938361276d565b81010312612021576143a06001600160801b0396614010565b614301565b3d915061437a565b60206101408901516142bf565b849350604091506143e090823d84116143ea575b6143d8818361276d565b810190614024565b9390939150614165565b503d6143ce565b606089015160408051635df7997b60e01b81526001600160801b038916600482015263ffffffff909216602483015290929083604481885af48015612016576001600160801b03938c85925f925f91614459575b5083604091169101521660608c0152614175565b8493506040915061447690823d84116143ea576143d8818361276d565b9390939150614445565b9094506020813d6020116144b4575b8161449c6020938361276d565b81010312612021576144ad90614010565b935f614102565b3d915061448f565b6302dcf64f60e31b5f5260045ffd5b9050806140a4565b6040830151614506576001600160801b03610100840151166001600160801b0360e085015116916101608501519161408a565b63091c5fb160e01b5f5260045ffd5b919394909296955f9163ffffffff8216155f1461454d575050506132b194956145489184309160018060a01b0316615d1c565b61478e565b9197909260018416156146d6575f546001600160a01b039081169161457491168214613266565b803b15612021575f8291600460405180948193630d0e30db60e41b83525af18015612016576146c1575b5080821161462a575b50506002905b161561461f57845485916001600160a01b03918216916145cf91168214613266565b803b15610f82578190602460405180948193632e1a7d4d60e01b83528860048401525af18015613da05761460a575b506132b19293506159ed565b61461585809261276d565b610c8457836145fe565b6132b193945061478e565b81039081116146ad5790600291878060405161464760208261276d565b81815260208101905f368337519084895af1614661613228565b5015614670575b8192506145a7565b6040519081526001600160a01b038516907faf73b0b217208b61be286bbc37095bce7eb8b9ccf617244c2f0f154e8e04e3ff90602090a25f614668565b634e487b7160e01b87526011600452602487fd5b6146ce9198505f9061276d565b5f965f61459e565b60029392506146f29190309087906001600160a01b0316615d1c565b6145ad565b6006546132b1926001600160801b03169160089190911c6001600160a01b03169061478e565b6001600160a01b03168061473057504790565b6020602491604051928380926370a0823160e01b82523060048301525afa908115612016575f9161475f575090565b90506020813d602011614786575b8161477a6020938361276d565b81010312612021575190565b3d915061476d565b9091906001600160a01b03811690816148595750505f80808093855af1156147b35750565b3d61100081118061484f575b6040516390bfb86560e01b81526001600160a01b0390931660048401525f602484018190526080604485015260a0601f8401601f1916908101606486015260848501849052929060a485013e81830190600460a4830152633d2cec6f60e21b9061483b575b6001600160e01b03191660c4919091015260e40190fd5b506380000000633d2cec6f60e21b01614824565b61100091506147bf565b60205f604481949682604095865198899363a9059cbb60e01b855260018060a01b0316600485015260248401525af13d15601f3d116001855114161716928281528260208201520152156148aa5750565b3d611000811180614941575b6040516390bfb86560e01b8152600481019390935263a9059cbb60e01b602484015260806044840152601f8201601f191660a08101606485015260848401839052915f60a485013e81830190600460a4830152633c9fd93960e21b9061492d576001600160e01b03191660c4919091015260e40190fd5b506380000000633c9fd93960e21b01614824565b61100091506148b6565b90614954613fc3565b916149608160076153b0565b805190929015614cc9576040830151614506576001600160801b0360e0840151166001600160801b036101008501511691610160850151915b60405163657c28b360e11b81526001600160801b0383166004820152602481018490525f604482015273__$abf3f930358ab14c0a62d1616736e4105f$__93602082606481885af4918215612016575f92614c85575b506001600160801b0390828288169283911611614bfe575b50506001600160801b0383169384156144bc5760408801805190949015614bc057606089015160408051636d91ec6f60e01b81526001600160801b038616600482015263ffffffff9092166024830152909283908180604481015b03915af4938415612016576001600160801b03614a99938c82975f925f91614b99575b5083604091169101521660608c0152612e7f565b9481602089015115155f14614b7e5750614ac390614abd8460608c01511684612a6e565b90612a6e565b935b88521660208701526101808501516001600160401b031660e0870152845115614b3857506001600160801b0380921660a08601521660c08401525b5f908152600a6020526040902060a083015160c084015160801b6001600160801b0319166001600160801b0391909116179055614220565b906001600160801b03809116928360a08801521660c08601525115159081614b75575b5015614b0057805f526009602052600160405f2055614b00565b9050155f614b5b565b614b93918460608c01511660808c0152612a6e565b93614ac5565b84935060409150614bb690823d84116143ea576143d8818361276d565b9390939150614a85565b606089015160408051635df7997b60e01b81526001600160801b038616600482015263ffffffff909216602483015290928390818060448101614a62565b91509192506040519163019a440960e21b83526004830152602482015260016044820152602081606481865af48015612016575f90614c4c575b6001600160801b0391501690835f80614a07565b506020813d602011614c7d575b81614c666020938361276d565b81010312612021576001600160801b039051614c38565b3d9150614c59565b9091506020813d602011614cc1575b81614ca16020938361276d565b8101031261202157614cba6001600160801b0391614010565b91906149ef565b3d9150614c94565b6001600160801b03610100840151166001600160801b0360e0850151169161014085015191614999565b5f90614cfd6131b8565b91815f52600a60205260405f2060405190614d1782612752565b546001600160801b038116825260801c60208201528260801c5f52600b60205260405f209160405192614d4984612707565b60018060a01b03815416845260018060a01b03600182015416602085015260018060a01b03600282015416604085015260038101546001600160801b038116606086015260801c60808501526004810154906001600160801b03821660a08601528160801c60c086015263ffffffff60066005830154926001600160801b03841660e08901526001600160401b038460801c16610100890152828460c01c166101208901528360e01c610140890152015481811661016088015260ff8160201c16151561018088015260ff8160281c1615156101a088015260301c166101c08601526001607f1b861615155f146153505750506001600160801b0360a084015116806001600160801b038616108015615320575b612d25576001600160801b03908186160316905b845f52600960205260405f20541580159061530c575b1561530057505f91600160808701525b8460801c60a08701526001600160801b03851660c087015282906001600160801b0360808601511690816101208901526001600160801b038151168015806152eb575b156152cd5750506001607f1b8616156151a45760e08701525b6001607f1b85161561506e575060018060a01b03602084015116906001600160801b0360405191630e64462360e41b8352600160048401528660801c602484015216806044830152602082606481865afa8015615063578490615030575b6020925061014088015260646040518094819363b2d811c360e01b8352600160048401528960801c602484015260448301525afa9182156150245791614fe9575b50906001600160401b0392610100926101608601525b6001607f1b1615158452610180810151151560208501526101a08101511515604085015263ffffffff61016082015116606085015201511661018082015290565b9190506020823d60201161501c575b816150056020938361276d565b810103126120215790516001600160401b03614f92565b3d9150614ff8565b604051903d90823e3d90fd5b506020823d60201161505b575b8161504a6020938361276d565b810103126120215760209151614f51565b3d915061503d565b6040513d86823e3d90fd5b60408401516001600160a01b031691908015615124575b60646020926001600160801b03926101408a0152604051948593849263b2d811c360e01b84528860048501528a60801c60248501521660448301525afa91821561502457916150e9575b50906001600160401b039261010092610160860152614fa8565b9190506020823d60201161511c575b816151056020938361276d565b810103126120215790516001600160401b036150cf565b3d91506150f8565b5060405190630e64462360e41b82528360048301528560801c60248301526001600160801b0381166044830152602082606481865afa91821561506357849261516f575b5090615085565b91506020823d60201161519c575b8161518a6020938361276d565b81010312612021579051906064615168565b3d915061517d565b6040858101519051630e64462360e41b815260048101869052608088901c60248201526001600160801b03851660448201529250602090839060649082906001600160a01b03165afa918215615063578492615299575b50816040519163657c28b360e11b83526004830152602482015283604482015260208160648173__$abf3f930358ab14c0a62d1616736e4105f$__5af48015615063578490615259575b6001600160801b031660e088015250614ef3565b506020813d602011615291575b816152736020938361276d565b81010312610c845761528c6001600160801b0391614010565b615245565b3d9150615266565b9091506020813d6020116152c5575b816152b56020938361276d565b810103126120215751905f6151fb565b3d91506152a8565b60e0890152602001516001600160801b031661010088015250614ef3565b506001600160801b0360208301511615614eda565b915f6080870152614e97565b5063ffffffff6101c0850151161515614e87565b506001600160801b0361533e63ffffffff6101208701511683612e7f565b166001600160801b0386161015614e5d565b8160801c6001600160801b03871610908115615383575b50612d25576001600160801b039060801c818616031690614e71565b6001600160801b03915061539d9060e01c8360801c612e7f565b166001600160801b03861610155f615367565b906153b96131b8565b91815f526003810160205260405f2090604051916153d683612752565b546001600160801b038116835260801c60208301528260801c5f526004810160205260405f20916040519261540a84612707565b60018060a01b03815416845260018060a01b03600182015416602085015260018060a01b03600282015416604085015260038101546001600160801b038116606086015260801c608085015260048101546001600160801b03811660a08601528060801c60c086015260066005830154926001600160801b03841660e08801526001600160401b038460801c1661010088015263ffffffff8460c01c166101208801528360e01c61014088015201549163ffffffff831661016087015260ff8360201c16151561018087015260ff8360281c1615156101a087015263ffffffff6101c087019360301c1683526001607f1b871615155f1461598b5750506001600160801b0360a085015116806001600160801b03871610801561595b575b612d25576001600160801b036002918188160316935b865f520160205260405f2054159081159161594a575b50156155695763d1f7307f60e01b5f5260045ffd5b5f60808601528360801c60a08601526001600160801b03841660c08601525f906001600160801b0360808501511690816101208801526001600160801b03815116801580615935575b156159175750506001607f1b8516156157ef5760e08601525b6001607f1b8416156156f3575060018060a01b03602083015116906001600160801b0360405191630e64462360e41b8352600160048401528560801c602484015216806044830152602082606481865afa8015612016575f906156c0575b6020925061014087015260646040518094819363b2d811c360e01b8352600160048401528860801c602484015260448301525afa908115612016575f91614fe95750906001600160401b0392610100926101608601526001607f1b1615158452610180810151151560208501526101a08101511515604085015263ffffffff61016082015116606085015201511661018082015290565b506020823d6020116156eb575b816156da6020938361276d565b810103126120215760209151615629565b3d91506156cd565b60408301516001600160a01b03169190801561576e575b60646020926001600160801b0392610140890152604051948593849263b2d811c360e01b84525f60048501528960801c60248501521660448301525afa908115612016575f916150e95750906001600160401b039261010092610160860152614fa8565b50604051630e64462360e41b81525f6004820152608085901c60248201526001600160801b038216604482015290602082606481865afa918215612016575f926157ba575b509061570a565b91506020823d6020116157e7575b816157d56020938361276d565b810103126120215790519060646157b3565b3d91506157c8565b6040848101519051630e64462360e41b81525f6004820152608087901c60248201526001600160801b03851660448201529250602090839060649082906001600160a01b03165afa918215612016575f926158e3575b50816040519163657c28b360e11b8352600483015260248201525f604482015260208160648173__$abf3f930358ab14c0a62d1616736e4105f$__5af48015612016575f906158a3575b6001600160801b031660e0870152506155cb565b506020813d6020116158db575b816158bd6020938361276d565b81010312612021576158d66001600160801b0391614010565b61588f565b3d91506158b0565b9091506020813d60201161590f575b816158ff6020938361276d565b810103126120215751905f615845565b3d91506158f2565b60e0880152602001516001600160801b0316610100870152506155cb565b506001600160801b03602083015116156155b2565b63ffffffff9150511615155f615554565b506001600160801b0361597963ffffffff6101208801511683612e7f565b166001600160801b0387161015615528565b8160801c6001600160801b038816109081156159c0575b50612d25576001600160801b0360029160801c81881603169361553e565b6001600160801b0391506159da9060e01c8360801c612e7f565b166001600160801b03871610155f6159a2565b5f9190829160405190615a0160208361276d565b83825260208201915f36843751925af1615a19613228565b5015615a2157565b60405162461bcd60e51b815260206004820152601760248201527f736166655472616e736665724554483a206661696c65640000000000000000006044820152606490fd5b906001600160801b038116906001607f1b811615801590615c92576001600160801b0360a085015116808410908115615c68575b50612d25575b60e08401926001600160801b038451166001600160801b03199060801b16175f52600a602052602060405f2060405190615ad982612752565b54906001600160801b0382169182825260801c9283910152801580615c60575b15615c4f57505015615b19575050608001516001600160801b0316905f90565b6001600160801b039392916064602092615b4b8760018060a01b03604088015116945116918860c08801511690612a6e565b926040519788948593630e64462360e41b85525f600486015260248501521660448301525afa928315612016575f93615c1a575b5060806001600160801b0391015116916040519263657c28b360e11b8452600484015260248301525f604483015260208260648173__$abf3f930358ab14c0a62d1616736e4105f$__5af4918215612016575f92615bde575b505f9190565b9091506020813d602011615c12575b81615bfa6020938361276d565b8101031261202157615c0b90614010565b905f615bd8565b3d9150615bed565b9092506020813d602011615c47575b81615c366020938361276d565b810103126120215751916080615b7f565b3d9150615c29565b935094935090505f14612eff579190565b508115615af9565b6001600160801b039150615c889063ffffffff6101208801511690612e7f565b168310155f615a9a565b6001600160801b0360c085015116808410908115615cc0575b5015615aa057630dcbb76b60e21b5f5260045ffd5b6001600160801b039150615ce09063ffffffff6101408801511690612e7f565b168310155f615cab565b903590601e198136030182121561202157018035906001600160401b0382116120215760200191813603831361202157565b6040516323b872dd60e01b81526001600160a01b03928316600482015292909116602483015260448201929092526020905f9060649082855af19081601f3d1160015f5114161516615dad575b5015615d7157565b60405162461bcd60e51b81526020600482015260146024820152731514905394d1915497d19493d357d1905253115160621b6044820152606490fd5b3b153d171590505f615d6956feae35c7c2aa2c370dc231788bf3ca95b5499b2855be3513829b0a9508f63fd271a264697066735822122024158b83894a7ad89fc728b2b1406e10eaa40ddd057ceb2a31bbe2491c1f288664736f6c63430008210033",
    "linkReferences": {
      "src/libraries/Lens.sol": {
        "Lens": [
          {
            "start": 15531,
            "length": 20
          },
          {
            "start": 17026,
            "length": 20
          },
          {
            "start": 19343,
            "length": 20
          },
          {
            "start": 21486,
            "length": 20
          },
          {
            "start": 23096,
            "length": 20
          },
          {
            "start": 23936,
            "length": 20
          }
        ]
      }
    }
  },
  "methodIdentifiers": {
    "WETH()": "ad5c4648",
    "cancelGrid(address,uint128,uint32)": "ce778cfc",
    "cancelGridOrders(address,uint256,uint32,uint32)": "175e811f",
    "cancelGridOrders(uint128,address,uint256[],uint32)": "0ee8325e",
    "fillAskOrder(uint256,uint128,uint128,bytes,uint32)": "2bb13d49",
    "fillAskOrders(uint64,uint256[],uint128[],uint128,uint128,bytes,uint32)": "cc3414a1",
    "fillBidOrder(uint256,uint128,uint128,bytes,uint32)": "7e795151",
    "fillBidOrders(uint64,uint256[],uint128[],uint128,uint128,bytes,uint32)": "370e7bd3",
    "getGridConfig(uint96)": "968444ca",
    "getGridOrder(uint256)": "9211555c",
    "getGridOrders(uint256[])": "b699908e",
    "getGridProfits(uint96)": "2156de9f",
    "getOneshotProtocolFeeBps()": "9e81f030",
    "getOrCreatePair(address,address)": "90a2956d",
    "getPair(address,address)": "e6a43905",
    "getPairById(uint64)": "4587b317",
    "getPairIdByTokens(address,address)": "fc404e62",
    "getPairTokens(uint64)": "abd57009",
    "initialize(address,address)": "485cc955",
    "initialized()": "158ef93e",
    "isStrategyWhitelisted(address)": "999ba27c",
    "modifyGridFee(uint128,uint32)": "08dc9239",
    "nextPairId()": "a48b0b69",
    "owner()": "8da5cb5b",
    "pause()": "8456cb59",
    "paused()": "5c975abb",
    "placeETHGridOrders(address,address,(address,address,bytes,bytes,uint32,uint32,uint32,bool,bool,uint128))": "22fe8ef2",
    "placeGridOrders(address,address,(address,address,bytes,bytes,uint32,uint32,uint32,bool,bool,uint128))": "d7f56f76",
    "quotableTokens(address)": "6e97ec64",
    "rescueEth(address,uint256)": "d7cc3d35",
    "setOneshotProtocolFeeBps(uint32)": "f53e0d6e",
    "setQuoteToken(address,uint256)": "e9739623",
    "setStrategyWhitelist(address,bool)": "9b7e2f77",
    "transferOwnership(address)": "f2fde38b",
    "unpause()": "3f4ba83a",
    "vault()": "fbfa77cf",
    "whitelistedStrategies(address)": "fccf8c05",
    "withdrawGridProfits(uint128,uint256,address,uint32)": "0a6524de"
  },
  "id": 32
}